{
  "contractName": "BlackJack",
  "abi": [
    {
      "constant": true,
      "inputs": [],
      "name": "owner",
      "outputs": [
        {
          "name": "",
          "type": "address"
        }
      ],
      "payable": false,
      "stateMutability": "view",
      "type": "function"
    },
    {
      "constant": true,
      "inputs": [
        {
          "name": "",
          "type": "uint256"
        }
      ],
      "name": "card",
      "outputs": [
        {
          "name": "suit",
          "type": "uint8"
        },
        {
          "name": "number",
          "type": "uint8"
        },
        {
          "name": "owner",
          "type": "address"
        }
      ],
      "payable": false,
      "stateMutability": "view",
      "type": "function"
    },
    {
      "constant": false,
      "inputs": [
        {
          "name": "newOwner",
          "type": "address"
        }
      ],
      "name": "transferOwnership",
      "outputs": [],
      "payable": false,
      "stateMutability": "nonpayable",
      "type": "function"
    },
    {
      "anonymous": false,
      "inputs": [
        {
          "indexed": false,
          "name": "suit",
          "type": "uint8"
        },
        {
          "indexed": false,
          "name": "number",
          "type": "uint8"
        },
        {
          "indexed": false,
          "name": "owner",
          "type": "address"
        }
      ],
      "name": "cardChange",
      "type": "event"
    },
    {
      "anonymous": false,
      "inputs": [
        {
          "indexed": false,
          "name": "players",
          "type": "address[]"
        },
        {
          "indexed": false,
          "name": "id",
          "type": "uint8"
        }
      ],
      "name": "getPlayers",
      "type": "event"
    },
    {
      "anonymous": false,
      "inputs": [
        {
          "indexed": false,
          "name": "winer",
          "type": "address"
        }
      ],
      "name": "GameOverEvent",
      "type": "event"
    },
    {
      "anonymous": false,
      "inputs": [
        {
          "indexed": false,
          "name": "sum",
          "type": "uint8"
        },
        {
          "indexed": false,
          "name": "owner",
          "type": "address"
        }
      ],
      "name": "StandEvent",
      "type": "event"
    },
    {
      "constant": true,
      "inputs": [],
      "name": "getContractAddress",
      "outputs": [
        {
          "name": "",
          "type": "address"
        }
      ],
      "payable": false,
      "stateMutability": "view",
      "type": "function"
    },
    {
      "constant": false,
      "inputs": [],
      "name": "setCard",
      "outputs": [],
      "payable": false,
      "stateMutability": "nonpayable",
      "type": "function"
    },
    {
      "constant": true,
      "inputs": [],
      "name": "getAllCard",
      "outputs": [
        {
          "name": "",
          "type": "uint8[52]"
        },
        {
          "name": "",
          "type": "uint8[52]"
        },
        {
          "name": "",
          "type": "address[52]"
        }
      ],
      "payable": false,
      "stateMutability": "view",
      "type": "function"
    },
    {
      "constant": false,
      "inputs": [],
      "name": "clearAllCard",
      "outputs": [],
      "payable": false,
      "stateMutability": "nonpayable",
      "type": "function"
    },
    {
      "constant": false,
      "inputs": [],
      "name": "addplayer",
      "outputs": [],
      "payable": false,
      "stateMutability": "nonpayable",
      "type": "function"
    },
    {
      "constant": true,
      "inputs": [],
      "name": "getPlayersNoGas",
      "outputs": [
        {
          "name": "",
          "type": "address[]"
        }
      ],
      "payable": false,
      "stateMutability": "view",
      "type": "function"
    },
    {
      "constant": false,
      "inputs": [
        {
          "name": "num",
          "type": "uint8"
        }
      ],
      "name": "Stand",
      "outputs": [],
      "payable": false,
      "stateMutability": "nonpayable",
      "type": "function"
    },
    {
      "constant": false,
      "inputs": [
        {
          "name": "_index",
          "type": "uint8"
        }
      ],
      "name": "exit",
      "outputs": [],
      "payable": false,
      "stateMutability": "nonpayable",
      "type": "function"
    },
    {
      "constant": true,
      "inputs": [],
      "name": "getAllstate",
      "outputs": [
        {
          "name": "",
          "type": "address[]"
        },
        {
          "name": "",
          "type": "uint8"
        }
      ],
      "payable": false,
      "stateMutability": "view",
      "type": "function"
    },
    {
      "constant": false,
      "inputs": [],
      "name": "StartGame",
      "outputs": [],
      "payable": false,
      "stateMutability": "nonpayable",
      "type": "function"
    }
  ],
  "bytecode": "0x60806040526000603660006101000a81548173ffffffffffffffffffffffffffffffffffffffff021916908373ffffffffffffffffffffffffffffffffffffffff1602179055506000603860006101000a81548160ff021916908360ff160217905550336000806101000a81548173ffffffffffffffffffffffffffffffffffffffff021916908373ffffffffffffffffffffffffffffffffffffffff16021790555061164c806100b16000396000f3006080604052600436106100c5576000357c0100000000000000000000000000000000000000000000000000000000900463ffffffff16806332a2c5d0146100ca5780634a978812146101215780634bef627c1461019a57806374fa935b146101ca5780638da5cb5b146101e15780638f3799a114610238578063a3dfc3641461024f578063aca0a71914610266578063adf591c31461027d578063bac6b5d3146102e9578063bfcfd9b914610319578063f2fde38b146103a0578063ffd4f7df146103e3575b600080fd5b3480156100d657600080fd5b506100df610494565b604051808273ffffffffffffffffffffffffffffffffffffffff1673ffffffffffffffffffffffffffffffffffffffff16815260200191505060405180910390f35b34801561012d57600080fd5b5061013661049c565b60405180806020018360ff1660ff168152602001828103825284818151815260200191508051906020019060200280838360005b8381101561018557808201518184015260208101905061016a565b50505050905001935050505060405180910390f35b3480156101a657600080fd5b506101c8600480360381019080803560ff169060200190929190505050610542565b005b3480156101d657600080fd5b506101df61082d565b005b3480156101ed57600080fd5b506101f6610a94565b604051808273ffffffffffffffffffffffffffffffffffffffff1673ffffffffffffffffffffffffffffffffffffffff16815260200191505060405180910390f35b34801561024457600080fd5b5061024d610ab9565b005b34801561025b57600080fd5b50610264610ac9565b005b34801561027257600080fd5b5061027b610df6565b005b34801561028957600080fd5b50610292611081565b6040518080602001828103825283818151815260200191508051906020019060200280838360005b838110156102d55780820151818401526020810190506102ba565b505050509050019250505060405180910390f35b3480156102f557600080fd5b50610317600480360381019080803560ff16906020019092919050505061110f565b005b34801561032557600080fd5b5061034460048036038101908080359060200190929190505050611200565b604051808460ff1660ff1681526020018360ff1660ff1681526020018273ffffffffffffffffffffffffffffffffffffffff1673ffffffffffffffffffffffffffffffffffffffff168152602001935050505060405180910390f35b3480156103ac57600080fd5b506103e1600480360381019080803573ffffffffffffffffffffffffffffffffffffffff169060200190929190505050611266565b005b3480156103ef57600080fd5b506103f8611304565b6040518084603460200280838360005b83811015610423578082015181840152602081019050610408565b5050505090500183603460200280838360005b83811015610451578082015181840152602081019050610436565b5050505090500182603460200280838360005b8381101561047f578082015181840152602081019050610464565b50505050905001935050505060405180910390f35b600030905090565b606060006037603860009054906101000a900460ff168180548060200260200160405190810160405280929190818152602001828054801561053357602002820191906000526020600020905b8160009054906101000a900473ffffffffffffffffffffffffffffffffffffffff1673ffffffffffffffffffffffffffffffffffffffff16815260200190600101908083116104e9575b50505050509150915091509091565b6000603860009054906101000a900460ff1660ff1614156105c45733603960000160016101000a81548173ffffffffffffffffffffffffffffffffffffffff021916908373ffffffffffffffffffffffffffffffffffffffff16021790555080603960000160006101000a81548160ff021916908360ff160217905550610721565b8060ff16603960000160009054906101000a900460ff1660ff16101561064b5733603960000160016101000a81548173ffffffffffffffffffffffffffffffffffffffff021916908373ffffffffffffffffffffffffffffffffffffffff16021790555080603960000160006101000a81548160ff021916908360ff160217905550610720565b8060ff16603960000160009054906101000a900460ff1660ff16141561071f576037600061067991906114e5565b6000603860006101000a81548160ff021916908360ff1602179055507f4f8fef0bf48f69f5a92588fd4320184091bc93e2abf99158029469e3c575ac54603660009054906101000a900473ffffffffffffffffffffffffffffffffffffffff16604051808273ffffffffffffffffffffffffffffffffffffffff1673ffffffffffffffffffffffffffffffffffffffff16815260200191505060405180910390a161082a565b5b5b6038600081819054906101000a900460ff168092919060010191906101000a81548160ff021916908360ff16021790555050603780549050603860009054906101000a900460ff1660ff161415610829576037600061078091906114e5565b6000603860006101000a81548160ff021916908360ff1602179055507f4f8fef0bf48f69f5a92588fd4320184091bc93e2abf99158029469e3c575ac54603960000160019054906101000a900473ffffffffffffffffffffffffffffffffffffffff16604051808273ffffffffffffffffffffffffffffffffffffffff1673ffffffffffffffffffffffffffffffffffffffff16815260200191505060405180910390a161082a565b5b50565b6000806000809250600090505b6037805490508160ff1610156108cc573373ffffffffffffffffffffffffffffffffffffffff1660378260ff1681548110151561087357fe5b9060005260206000200160009054906101000a900473ffffffffffffffffffffffffffffffffffffffff1673ffffffffffffffffffffffffffffffffffffffff1614156108bf57600192505b808060010191505061083a565b60008360ff16141561093f5760373390806001815401808255809150509060018203906000526020600020016000909192909190916101000a81548173ffffffffffffffffffffffffffffffffffffffff021916908373ffffffffffffffffffffffffffffffffffffffff160217905550505b600090505b6037805490508160ff1610156109d5573373ffffffffffffffffffffffffffffffffffffffff1660378260ff1681548110151561097d57fe5b9060005260206000200160009054906101000a900473ffffffffffffffffffffffffffffffffffffffff1673ffffffffffffffffffffffffffffffffffffffff1614156109c8578091505b8080600101915050610944565b7ffc135c60c184c76d68f6333687effea744889dbb66f076597f2547319513663e60378360405180806020018360ff1660ff1681526020018281038252848181548152602001915080548015610a8057602002820191906000526020600020905b8160009054906101000a900473ffffffffffffffffffffffffffffffffffffffff1673ffffffffffffffffffffffffffffffffffffffff1681526020019060010190808311610a36575b5050935050505060405180910390a1505050565b6000809054906101000a900473ffffffffffffffffffffffffffffffffffffffff1681565b60026000610ac79190611506565b565b60008060008060026000610add9190611506565b6000603860006101000a81548160ff021916908360ff160217905550600093505b6002841015610df057600092505b603780549050831015610de35760009150610b268261146d565b90505b603660009054906101000a900473ffffffffffffffffffffffffffffffffffffffff1673ffffffffffffffffffffffffffffffffffffffff1660028260ff16603481101515610b7457fe5b0160000160029054906101000a900473ffffffffffffffffffffffffffffffffffffffff1673ffffffffffffffffffffffffffffffffffffffff16141515610bce578180600101925050610bc78261146d565b9050610b29565b60048160ff16811515610bdd57fe5b0660028260ff16603481101515610bf057fe5b0160000160006101000a81548160ff021916908360ff1602179055506001600d8260ff16811515610c1d57fe5b060160028260ff16603481101515610c3157fe5b0160000160016101000a81548160ff021916908360ff160217905550603783815481101515610c5c57fe5b9060005260206000200160009054906101000a900473ffffffffffffffffffffffffffffffffffffffff1660028260ff16603481101515610c9957fe5b0160000160026101000a81548173ffffffffffffffffffffffffffffffffffffffff021916908373ffffffffffffffffffffffffffffffffffffffff1602179055507f482dbfe1aae281b3a24b60478d454b35842b2614a0cd26aae323135f3f382c3160028260ff16603481101515610d0e57fe5b0160000160009054906101000a900460ff1660028360ff16603481101515610d3257fe5b0160000160019054906101000a900460ff1660028460ff16603481101515610d5657fe5b0160000160029054906101000a900473ffffffffffffffffffffffffffffffffffffffff16604051808460ff1660ff1681526020018360ff1660ff1681526020018273ffffffffffffffffffffffffffffffffffffffff1673ffffffffffffffffffffffffffffffffffffffff168152602001935050505060405180910390a18280600101935050610b0c565b8380600101945050610afe565b50505050565b60008060009150610e068261146d565b90505b603660009054906101000a900473ffffffffffffffffffffffffffffffffffffffff1673ffffffffffffffffffffffffffffffffffffffff1660028260ff16603481101515610e5457fe5b0160000160029054906101000a900473ffffffffffffffffffffffffffffffffffffffff1673ffffffffffffffffffffffffffffffffffffffff16141515610eae578180600101925050610ea78261146d565b9050610e09565b60048160ff16811515610ebd57fe5b0660028260ff16603481101515610ed057fe5b0160000160006101000a81548160ff021916908360ff1602179055506001600d8260ff16811515610efd57fe5b060160028260ff16603481101515610f1157fe5b0160000160016101000a81548160ff021916908360ff1602179055503360028260ff16603481101515610f4057fe5b0160000160026101000a81548173ffffffffffffffffffffffffffffffffffffffff021916908373ffffffffffffffffffffffffffffffffffffffff1602179055507f482dbfe1aae281b3a24b60478d454b35842b2614a0cd26aae323135f3f382c3160028260ff16603481101515610fb557fe5b0160000160009054906101000a900460ff1660028360ff16603481101515610fd957fe5b0160000160019054906101000a900460ff1660028460ff16603481101515610ffd57fe5b0160000160029054906101000a900473ffffffffffffffffffffffffffffffffffffffff16604051808460ff1660ff1681526020018360ff1660ff1681526020018273ffffffffffffffffffffffffffffffffffffffff1673ffffffffffffffffffffffffffffffffffffffff168152602001935050505060405180910390a15050565b6060603780548060200260200160405190810160405280929190818152602001828054801561110557602002820191906000526020600020905b8160009054906101000a900473ffffffffffffffffffffffffffffffffffffffff1673ffffffffffffffffffffffffffffffffffffffff16815260200190600101908083116110bb575b5050505050905090565b6000806037805490509150818360ff1610151561112b576111fb565b8290505b600182038160ff1610156111e45760376001820160ff1681548110151561115257fe5b9060005260206000200160009054906101000a900473ffffffffffffffffffffffffffffffffffffffff1660378260ff1681548110151561118f57fe5b9060005260206000200160006101000a81548173ffffffffffffffffffffffffffffffffffffffff021916908373ffffffffffffffffffffffffffffffffffffffff160217905550808060010191505061112f565b60378054809190600190036111f99190611519565b505b505050565b60028160348110151561120f57fe5b016000915090508060000160009054906101000a900460ff16908060000160019054906101000a900460ff16908060000160029054906101000a900473ffffffffffffffffffffffffffffffffffffffff16905083565b6000809054906101000a900473ffffffffffffffffffffffffffffffffffffffff1673ffffffffffffffffffffffffffffffffffffffff163373ffffffffffffffffffffffffffffffffffffffff161415156112c157600080fd5b806000806101000a81548173ffffffffffffffffffffffffffffffffffffffff021916908373ffffffffffffffffffffffffffffffffffffffff16021790555050565b61130c611545565b611314611545565b61131c611569565b611324611545565b61132c611545565b611334611569565b60005b60348160ff16101561145b5760028160ff1660348110151561135557fe5b0160000160009054906101000a900460ff16848260ff1660348110151561137857fe5b602002019060ff16908160ff168152505060028160ff1660348110151561139b57fe5b0160000160019054906101000a900460ff16838260ff166034811015156113be57fe5b602002019060ff16908160ff168152505060028160ff166034811015156113e157fe5b0160000160029054906101000a900473ffffffffffffffffffffffffffffffffffffffff16828260ff1660348110151561141757fe5b602002019073ffffffffffffffffffffffffffffffffffffffff16908173ffffffffffffffffffffffffffffffffffffffff16815250508080600101915050611337565b83838396509650965050505050909192565b600080434083426040518084600019166000191681526020018360ff1660ff167f01000000000000000000000000000000000000000000000000000000000000000281526001018281526020019350505050604051809103902060019004905060348160ff168115156114dc57fe5b06915050919050565b5080546000825590600052602060002090810190611503919061158d565b50565b50806034019061151691906115b2565b50565b8154818355818111156115405781836000526020600020918201910161153f919061158d565b5b505050565b61068060405190810160405280603490602082028038833980820191505090505090565b61068060405190810160405280603490602082028038833980820191505090505090565b6115af91905b808211156115ab576000816000905550600101611593565b5090565b90565b61161d91905b8082111561161957600080820160006101000a81549060ff02191690556000820160016101000a81549060ff02191690556000820160026101000a81549073ffffffffffffffffffffffffffffffffffffffff0219169055506001016115b8565b5090565b905600a165627a7a72305820e2c43eeb6e45728d338383355e944b76975bdaaadc4e3cebc51c57cfb747015c0029",
  "source": "pragma solidity ^0.4.16;\n\nimport \"./owned.sol\";\n\ncontract BlackJack is owned {\n    \n    \n    // uint256 costToPlay;\n    uint i;\n    event cardChange(uint8 suit, uint8 number, address owner);\n    event getPlayers(address[] players, uint8 id);\n    event GameOverEvent(address winer);\n    event StandEvent(uint8 sum, address owner);\n\n    \n    struct Card {\n        uint8 suit;\n        uint8 number;\n        address owner;\n    }\n    // struct players\n\n    Card[52] public card;\n    address zeroAddress = 0x0000000000000000000000000000000000000000;\n    // mapping (address => uint) public PlayersToUint;\n    // mapping (uint => address) public uintToPlayers;\n    address[] players;\n    uint8 NumberofWinner = 0;\n    struct Winner{\n        uint8 num;\n        address winner;\n    }\n    Winner winner;\n\n    // function blackjack() payable public {\n    //     costToPlay = .1 ether;\n    // }\n\n    // function () payable public {}\n    \n    function getContractAddress() public  view returns (address){\n        return this;\n    }\n\n    function setCard() public {\n        uint8 randNonce = 0;\n        uint8 tmp = randomNumber(randNonce);\n        while(card[tmp].owner != zeroAddress){\n            randNonce++;\n            tmp = randomNumber(randNonce);\n        }\n        card[tmp].suit = tmp % 4;\n        card[tmp].number = tmp % 13 + 1;\n        card[tmp].owner = msg.sender;\n\n        emit cardChange(card[tmp].suit, card[tmp].number, card[tmp].owner);\n    }\n\n    function getAllCard() public view returns (uint8[52], uint8[52], address[52]){\n        uint8[52] memory suits;\n        uint8[52] memory numbers;\n        address[52] memory owners;\n\n        for(uint8 i; i < 52; i++){\n            suits[i] = card[i].suit;\n            numbers[i] = card[i].number;\n            owners[i] = card[i].owner;\n        }\n        return (suits, numbers, owners);\n    }\n    //随机数重要\n    function randomNumber(uint8 num) internal returns (uint8 result) {\n        uint8 cardNumber = uint8(keccak256(block.blockhash(block.number), num, now));\n        return cardNumber % 52;\n    }\n\n    function clearAllCard() public{\n        delete card;\n    }\n\n    function addplayer() public {\n        uint8 a = 0;\n        uint8 id;\n        for(uint8 i = 0; i < players.length; i++){\n            if(players[i] == msg.sender){\n                a = 1;\n            }\n        }\n        if(a == 0){\n            players.push(msg.sender);\n        }\n        for(i = 0; i < players.length; i++){\n            if(players[i] == msg.sender){\n                id = i;         \n            }\n        }\n        emit getPlayers(players, id);\n    }\n    function getPlayersNoGas() public view returns (address[]){\n        return (players);\n    }\n\n    function Stand(uint8 num) public {\n        // msg.sender.transfer(1 ether);\n        // delete players;\n        if (NumberofWinner == 0){\n            winner.winner = msg.sender;\n            winner.num = num;\n        }else {\n            if(winner.num < num){\n                winner.winner = msg.sender;\n                winner.num = num;\n            }else if(winner.num == num){\n                delete players;\n                NumberofWinner = 0;\n                emit GameOverEvent(zeroAddress);\n                return;\n            }\n        }\n        NumberofWinner++;\n        if(NumberofWinner == players.length){\n            delete players;\n            NumberofWinner = 0;\n            emit GameOverEvent(winner.winner);\n            return;\n        }\n    }\n\n    function exit(uint8 _index) public {\n        uint len = players.length;\n        if (_index >= len) {\n            return;\n        }\n        for(uint8 i = _index; i < len - 1; i++){\n            players[i] = players[i+1];\n        }\n        players.length--;\n    }\n\n    function getAllstate() public view returns (address[], uint8){\n        return (players, NumberofWinner);\n    }\n\n    function StartGame() public {\n        delete card;\n        NumberofWinner = 0;\n        for(uint j = 0; j < 2; j++){\n            for (uint i = 0; i < players.length; i++){\n                uint8 randNonce = 0;\n                uint8 tmp = randomNumber(randNonce);\n                while(card[tmp].owner != zeroAddress){\n                    randNonce++;\n                    tmp = randomNumber(randNonce);\n                }\n                card[tmp].suit = tmp % 4;\n                card[tmp].number = tmp % 13 + 1;\n                card[tmp].owner = players[i];\n                emit cardChange(card[tmp].suit, card[tmp].number, card[tmp].owner);\n            }\n        }\n    }\n}",
  "sourcePath": "/Users/wangruidong/Downloads/final desternation/project/contracts/BlackJack.sol",
  "compiler": {
    "name": "solc",
    "version": "0.4.24+commit.e67f0147.Emscripten.clang"
  },
  "schemaVersion": "2.0.0",
  "updatedAt": "2018-08-27T14:04:33.899Z"
}